{
  "contractName": "Splitter",
  "abi": [
    {
      "constant": true,
      "inputs": [],
      "name": "isRunning",
      "outputs": [
        {
          "name": "",
          "type": "bool"
        }
      ],
      "payable": false,
      "stateMutability": "view",
      "type": "function",
      "signature": "0x2014e5d1"
    },
    {
      "constant": false,
      "inputs": [
        {
          "name": "running",
          "type": "bool"
        }
      ],
      "name": "switchRunning",
      "outputs": [],
      "payable": false,
      "stateMutability": "nonpayable",
      "type": "function",
      "signature": "0x5f088053"
    },
    {
      "constant": false,
      "inputs": [
        {
          "name": "newOwner",
          "type": "address"
        }
      ],
      "name": "changeOwner",
      "outputs": [],
      "payable": false,
      "stateMutability": "nonpayable",
      "type": "function",
      "signature": "0xa6f9dae1"
    },
    {
      "constant": true,
      "inputs": [],
      "name": "Owner",
      "outputs": [
        {
          "name": "",
          "type": "address"
        }
      ],
      "payable": false,
      "stateMutability": "view",
      "type": "function",
      "signature": "0xb4a99a4e"
    },
    {
      "inputs": [
        {
          "name": "isRunning",
          "type": "bool"
        }
      ],
      "payable": false,
      "stateMutability": "nonpayable",
      "type": "constructor",
      "signature": "constructor"
    },
    {
      "anonymous": false,
      "inputs": [
        {
          "indexed": true,
          "name": "from",
          "type": "address"
        },
        {
          "indexed": false,
          "name": "amount",
          "type": "uint256"
        },
        {
          "indexed": true,
          "name": "receiver1",
          "type": "address"
        },
        {
          "indexed": true,
          "name": "receiver2",
          "type": "address"
        }
      ],
      "name": "SplitEvent",
      "type": "event",
      "signature": "0x114c6a63229665e57b058e9e46178d3feb6dd987b44b45b11966181442bc9ed1"
    },
    {
      "anonymous": false,
      "inputs": [
        {
          "indexed": true,
          "name": "receiver",
          "type": "address"
        },
        {
          "indexed": false,
          "name": "amount",
          "type": "uint256"
        }
      ],
      "name": "WithdrawEvent",
      "type": "event",
      "signature": "0x5dba113b49cfa7c90315e8e604e6b506f7abcb909b01dcb19ec39005086e68fc"
    },
    {
      "anonymous": false,
      "inputs": [
        {
          "indexed": false,
          "name": "oldValue",
          "type": "bool"
        },
        {
          "indexed": false,
          "name": "newValue",
          "type": "bool"
        }
      ],
      "name": "SwitchRunningEvent",
      "type": "event",
      "signature": "0x9ef9efd4af731014de3da51dfd78e38b17776dcf0a7e23c7da9a2a559e05fb0d"
    },
    {
      "anonymous": false,
      "inputs": [
        {
          "indexed": true,
          "name": "oldOwner",
          "type": "address"
        },
        {
          "indexed": true,
          "name": "newOwner",
          "type": "address"
        }
      ],
      "name": "ChangeOwnerEvent",
      "type": "event",
      "signature": "0x1c3c3d32752a939db9ac720da757226033136f4b2c9878c337e09f5c85b108da"
    },
    {
      "constant": true,
      "inputs": [
        {
          "name": "a",
          "type": "address"
        }
      ],
      "name": "balanceOf",
      "outputs": [
        {
          "name": "balance",
          "type": "uint256"
        }
      ],
      "payable": false,
      "stateMutability": "view",
      "type": "function",
      "signature": "0x70a08231"
    },
    {
      "constant": false,
      "inputs": [
        {
          "name": "receiver1",
          "type": "address"
        },
        {
          "name": "receiver2",
          "type": "address"
        }
      ],
      "name": "split",
      "outputs": [],
      "payable": true,
      "stateMutability": "payable",
      "type": "function",
      "signature": "0x0f2c9329"
    },
    {
      "constant": false,
      "inputs": [],
      "name": "withdraw",
      "outputs": [],
      "payable": false,
      "stateMutability": "nonpayable",
      "type": "function",
      "signature": "0x3ccfd60b"
    }
  ],
  "bytecode": "0x608060405234801561001057600080fd5b50604051602080610b2c8339810180604052602081101561003057600080fd5b810190808051906020019092919050505080336000806101000a81548173ffffffffffffffffffffffffffffffffffffffff021916908373ffffffffffffffffffffffffffffffffffffffff1602179055506000809054906101000a900473ffffffffffffffffffffffffffffffffffffffff1673ffffffffffffffffffffffffffffffffffffffff16600073ffffffffffffffffffffffffffffffffffffffff167f1c3c3d32752a939db9ac720da757226033136f4b2c9878c337e09f5c85b108da60405160405180910390a380600060146101000a81548160ff0219169083151502179055505050610a03806101296000396000f3fe608060405260043610610083576000357c0100000000000000000000000000000000000000000000000000000000900463ffffffff1680630f2c9329146100885780632014e5d1146100ec5780633ccfd60b1461011b5780635f0880531461013257806370a082311461016f578063a6f9dae1146101d4578063b4a99a4e14610225575b600080fd5b6100ea6004803603604081101561009e57600080fd5b81019080803573ffffffffffffffffffffffffffffffffffffffff169060200190929190803573ffffffffffffffffffffffffffffffffffffffff16906020019092919050505061027c565b005b3480156100f857600080fd5b50610101610534565b604051808215151515815260200191505060405180910390f35b34801561012757600080fd5b5061013061054a565b005b34801561013e57600080fd5b5061016d6004803603602081101561015557600080fd5b81019080803515159060200190929190505050610695565b005b34801561017b57600080fd5b506101be6004803603602081101561019257600080fd5b81019080803573ffffffffffffffffffffffffffffffffffffffff169060200190929190505050610768565b6040518082815260200191505060405180910390f35b3480156101e057600080fd5b50610223600480360360208110156101f757600080fd5b81019080803573ffffffffffffffffffffffffffffffffffffffff1690602001909291905050506107b1565b005b34801561023157600080fd5b5061023a61093e565b604051808273ffffffffffffffffffffffffffffffffffffffff1673ffffffffffffffffffffffffffffffffffffffff16815260200191505060405180910390f35b600060149054906101000a900460ff16151561029757600080fd5b600073ffffffffffffffffffffffffffffffffffffffff168273ffffffffffffffffffffffffffffffffffffffff16141580156103015750600073ffffffffffffffffffffffffffffffffffffffff168173ffffffffffffffffffffffffffffffffffffffff1614155b151561030c57600080fd5b600061032260023461096790919063ffffffff16565b905061037681600160008673ffffffffffffffffffffffffffffffffffffffff1673ffffffffffffffffffffffffffffffffffffffff1681526020019081526020016000205461099190919063ffffffff16565b600160008573ffffffffffffffffffffffffffffffffffffffff1673ffffffffffffffffffffffffffffffffffffffff1681526020019081526020016000208190555061040b81600160008573ffffffffffffffffffffffffffffffffffffffff1673ffffffffffffffffffffffffffffffffffffffff1681526020019081526020016000205461099190919063ffffffff16565b600160008473ffffffffffffffffffffffffffffffffffffffff1673ffffffffffffffffffffffffffffffffffffffff168152602001908152602001600020819055508173ffffffffffffffffffffffffffffffffffffffff168373ffffffffffffffffffffffffffffffffffffffff163373ffffffffffffffffffffffffffffffffffffffff167f114c6a63229665e57b058e9e46178d3feb6dd987b44b45b11966181442bc9ed1346040518082815260200191505060405180910390a460006104e06002346109b290919063ffffffff16565b111561052f573373ffffffffffffffffffffffffffffffffffffffff166108fc60019081150290604051600060405180830381858888f1935050505015801561052d573d6000803e3d6000fd5b505b505050565b60008060149054906101000a900460ff16905090565b600060149054906101000a900460ff16151561056557600080fd5b6000600160003373ffffffffffffffffffffffffffffffffffffffff1673ffffffffffffffffffffffffffffffffffffffff1681526020019081526020016000205490506000811115156105b857600080fd5b6000600160003373ffffffffffffffffffffffffffffffffffffffff1673ffffffffffffffffffffffffffffffffffffffff168152602001908152602001600020819055503373ffffffffffffffffffffffffffffffffffffffff167f5dba113b49cfa7c90315e8e604e6b506f7abcb909b01dcb19ec39005086e68fc826040518082815260200191505060405180910390a23373ffffffffffffffffffffffffffffffffffffffff166108fc829081150290604051600060405180830381858888f19350505050158015610691573d6000803e3d6000fd5b5050565b3373ffffffffffffffffffffffffffffffffffffffff166000809054906101000a900473ffffffffffffffffffffffffffffffffffffffff1673ffffffffffffffffffffffffffffffffffffffff161415156106f057600080fd5b60008060149054906101000a900460ff16905081600060146101000a81548160ff0219169083151502179055507f9ef9efd4af731014de3da51dfd78e38b17776dcf0a7e23c7da9a2a559e05fb0d81836040518083151515158152602001821515151581526020019250505060405180910390a15050565b6000600160008373ffffffffffffffffffffffffffffffffffffffff1673ffffffffffffffffffffffffffffffffffffffff168152602001908152602001600020549050919050565b3373ffffffffffffffffffffffffffffffffffffffff166000809054906101000a900473ffffffffffffffffffffffffffffffffffffffff1673ffffffffffffffffffffffffffffffffffffffff1614151561080c57600080fd5b8073ffffffffffffffffffffffffffffffffffffffff166000809054906101000a900473ffffffffffffffffffffffffffffffffffffffff1673ffffffffffffffffffffffffffffffffffffffff16141580156108965750600073ffffffffffffffffffffffffffffffffffffffff168173ffffffffffffffffffffffffffffffffffffffff1614155b15156108a157600080fd5b806000806101000a81548173ffffffffffffffffffffffffffffffffffffffff021916908373ffffffffffffffffffffffffffffffffffffffff1602179055508073ffffffffffffffffffffffffffffffffffffffff163373ffffffffffffffffffffffffffffffffffffffff167f1c3c3d32752a939db9ac720da757226033136f4b2c9878c337e09f5c85b108da60405160405180910390a350565b60008060009054906101000a900473ffffffffffffffffffffffffffffffffffffffff16905090565b6000808211151561097757600080fd5b6000828481151561098457fe5b0490508091505092915050565b60008082840190508381101515156109a857600080fd5b8091505092915050565b60008082141515156109c357600080fd5b81838115156109ce57fe5b0690509291505056fea165627a7a72305820045be1550db25ae19b19df8d26bcdcd64c6659507107b2a3cac32b8fdf281e4b0029",
  "source": "pragma solidity >=0.4.21 <0.6.0;\n\nimport './Pausable.sol';\nimport './SafeMath.sol';\n\ncontract Splitter is Pausable {\n    // library\n    using SafeMath for uint;\n\n    // balance\n    mapping(address => uint) private _balanceOf;\n\n    // constructor\n    constructor(bool isRunning)\n        public\n        Pausable(isRunning)\n        {}\n\n    // event\n    event SplitEvent(\n        address indexed from,\n        uint amount,\n        address indexed receiver1,\n        address indexed receiver2\n    );\n    event WithdrawEvent(\n        address indexed receiver,\n        uint amount\n    );\n\n    // check balance\n    function balanceOf(address a)\n        public\n        view\n        returns(uint balance)\n    {\n        balance = _balanceOf[a];\n    }\n    \n    // Split\n    function split(\n        address payable receiver1,\n        address payable receiver2\n    )\n        public\n        payable\n        runningOnly\n    {\n        require(receiver1 != address(0x0) && receiver2 != address(0x0));\n        // get haft\n        uint half = msg.value.div(2);\n\n        // record balances\n        _balanceOf[receiver1] = _balanceOf[receiver1].add(half);\n        _balanceOf[receiver2] = _balanceOf[receiver2].add(half);\n\n        // emit event\n        emit SplitEvent(msg.sender, msg.value, receiver1, receiver2);\n        \n        // odd number, return the change.\n        if(msg.value.mod(2) > 0) msg.sender.transfer(1);\n    }\n\n    // withdraw\n    function withdraw()\n        public\n        runningOnly\n    {\n        uint balance = _balanceOf[msg.sender];\n\n        // check amount >0\n        require(balance > 0);\n\n        // set balance to zero\n        _balanceOf[msg.sender] = 0;\n\n        // event\n        emit WithdrawEvent(msg.sender, balance);\n\n        // transfer\n        msg.sender.transfer(balance);\n    }\n}",
  "sourcePath": "E:/IT/B9lab/ETH/smart-contract-splitter/contracts/Splitter.sol",
  "compiler": {
    "name": "solc",
    "version": "0.5.0+commit.1d4f565a.Emscripten.clang"
  },
  "schemaVersion": "3.0.3",
  "updatedAt": "2019-04-23T02:28:34.215Z",
  "devdoc": {
    "methods": {}
  },
  "userdoc": {
    "methods": {}
  }
}